:100000001CC1000018C40000EBC30000BEC3000008
:1000100091C3000064C3000037C300000AC300009E
:10002000DDC200003BC1000039C1000037C1000043
:1000300035C1000033C1000031C100002FC10000F4
:100040002DC100002BC1000029C1000027C1000004
:1000500091C4000023C1000021C100000C94A3152D
:100060001DC1000051C4000026C4000017C10000DB
:1000700015C1000013C1000011C100000FC1000034
:100080000DC100000BC1000009C1000007C1000044
:1000900005C1000003C1000001C10000FFC0000055
:1000A000FDC00000FBC00000F9C00000F7C0000068
:1000B000F5C00000F3C00000F1C00000EFC0000078
:1000C000EDC00000EBC00000E9C00000E7C0000088
:1000D000E5C00000E3C00000E1C00000DFC0000098
:1000E000DDC00000E714EA14D914DD14E114211571
:1000F000EE14F214F814FC14001506150A150E156A
:100100002115141518151C157C3C3E5E2B3D3F2F08
:100110005B5D3B2C2A225C000000200023002600AF
:1001200029002C002F00320000010000030106010D
:10013000090100002100240027002A002D003000C2
:10014000330001010000040107010A010000220040
:10015000250028002B002E00310034000201000091
:10016000050108010B010505050507050808080834
:10017000020202020A0A080804040404010101013F
:10018000010101010303030303030303040707073A
:100190000C0C0C0C0C0C0C0C0202020206060606DF
:1001A000060606060B0B0B0B0B0B0B0B01021020AC
:1001B000200808102040102040800201020108049D
:1001C0000201010204081020408080402010080431
:1001D000020180040201804020100804020108048A
:1001E00002010102040810204080010204081020CE
:1001F000408000000A0B02090C0D0E0807030401E1
:1002000000000000000000000000000000000000EE
:1002100000000000000000000000000000001211BB
:1002200010000000000000000000000000000000BE
:1002300000000000000000000B1C11241FBECFEFC7
:10024000D1E2DEBFCDBF00E00CBF12E0A0E0B2E023
:10025000E2E3F1E400E00BBF02C007900D92A03A88
:10026000B107D9F726E0A0EAB2E001C01D92AC3791
:10027000B207E1F711E0CDE1D1E000E006C021973F
:100280000109802FFE010E94351FCC31D10780E08B
:100290000807A9F70E9432160C949720B1CE089552
:1002A000CF92DF92EF92FF920F931F93CF93DF9342
:1002B0006C017A018B01C0E0D0E0CE15DF0581F042
:1002C000D8016D918D01D601ED91FC910190F081E5
:1002D000E02DC6011995892B11F02196EECF7E01F4
:1002E000C701DF91CF911F910F91FF90EF90DF90A9
:1002F000CF900895FC01538D448D252F30E0842F3D
:1003000090E0821B930B541710F0CF96089501973D
:100310000895FC01918D828D981761F0828DDF0127
:10032000A80FB11D5D968C91928D9F5F9F73928FE8
:1003300090E008958FEF9FEF0895FC01918D828DDD
:10034000981731F0828DE80FF11D858D90E00895AA
:100350008FEF9FEF0895FC01918D228D892F90E002
:10036000805C9F4F821B91098F739927089582E4C7
:1003700095E0F1DF21E0892B09F420E0822F089538
:10038000FC01848DDF01A80FB11DA35ABF4F2C9132
:10039000848D90E001968F739927848FA689B78901
:1003A0002C93A089B1898C91837080648C93938DF8
:1003B000848D981306C00288F389E02D80818F7D9B
:1003C00080830895EF92FF920F931F93CF93DF9353
:1003D000EC0181E0888F9B8D8C8D981305C0E88996
:1003E000F989808185FD25C0F62E0B8D10E00F5F09
:1003F0001F4F0F731127E02E8C8DE8120BC00FB624
:1004000007FCFACFE889F989808185FFF5CFCE0115
:10041000B7DFF2CF8B8DFE01E80FF11DE35AFF4FDE
:10042000F0829FB7F8940B8FEA89FB898081806204
:100430000AC09FB7F894EE89FF896083E889F9893B
:1004400080818370806480839FBF81E090E0DF9132
:10045000CF911F910F91FF90EF900895CF93DF936D
:10046000EC01888D8823C1F0EA89FB89808185FDB4
:1004700005C0A889B9898C9186FD0EC00FB607FC0E
:10048000F5CF808185FFF2CFA889B9898C9185FF4E
:10049000EDCFCE0175DFE8CFDF91CF91089580E0F9
:1004A00090E0892B19F063DF811125C080E090E096
:1004B000892B41F080E090E0892B21F00E94000020
:1004C00081111CC080E090E0892B41F080E090E039
:1004D000892B21F00E940000811113C080E090E080
:1004E000892BA1F080E090E0892B81F00E94000030
:1004F00081110AC008950E940000D8CF0E94000018
:10050000E1CF0E940000EACF0C94000008950E9401
:1005100077201F93CF93DF93EC0180E2689FF00177
:100520001124EE5BFC4F9385917129F0842F827426
:1005300011F080E04FC0142F6A8B809110029091CF
:100540001102A0911202B09113028E879F87A88B8F
:10055000B98B4489558960E070E0BA01552744277A
:10056000828D938DA0E0B0E0482B592B6A2B7B2B1A
:100570004F8B588F698F7A8F8385887151F4848D62
:10058000958DA68DB78D8B8B9C8BAD8BBE8B81E0B3
:100590000CC0803171F69E012D5E3F4F8B8D9C8D7E
:1005A0000E94EC0B882329F284E08D83812F8F70C9
:1005B0008C831E821F82188619861A861B861C86CB
:1005C0001D8616FF06C0CE01DF91CF911F910C94BE
:1005D000640B81E0DF91CF911F9108951F920F92DC
:1005E0000FB60F9211240BB60F922F933F934F9398
:1005F0005F936F937F938F939F93AF93BF93EF938B
:10060000FF93E0910E02F0910F021995FF91EF9187
:10061000BF91AF919F918F917F916F915F914F911A
:100620003F912F910F900BBE0F900FBE0F901F9018
:1006300018951F920F920FB60F9211240BB60F92BE
:100640002F933F934F935F936F937F938F939F93DA
:10065000AF93BF93EF93FF93E0910C02F0910D02E3
:100660001995FF91EF91BF91AF919F918F917F91DC
:100670006F915F914F913F912F910F900BBE0F9013
:100680000FBE0F901F9018951F920F920FB60F92EA
:1006900011240BB60F922F933F934F935F936F9359
:1006A0007F938F939F93AF93BF93EF93FF93E091CB
:1006B0000202F09103021995FF91EF91BF91AF9162
:1006C0009F918F917F916F915F914F913F912F916A
:1006D0000F900BBE0F900FBE0F901F9018951F929A
:1006E0000F920FB60F9211240BB60F922F933F93D8
:1006F0004F935F936F937F938F939F93AF93BF932A
:10070000EF93FF93E0910002F09101021995FF91A0
:10071000EF91BF91AF919F918F917F916F915F9179
:100720004F913F912F910F900BBE0F900FBE0F90E6
:100730001F9018951F920F920FB60F9211240BB6AF
:100740000F922F933F934F935F936F937F938F936A
:100750009F93AF93BF93EF93FF93E0910A02F091C1
:100760000B021995FF91EF91BF91AF919F918F91DE
:100770007F916F915F914F913F912F910F900BBEA1
:100780000F900FBE0F901F9018951F920F920FB6EB
:100790000F9211240BB60F922F933F934F935F93B9
:1007A0006F937F938F939F93AF93BF93EF93FF9339
:1007B000E0910802F09109021995FF91EF91BF9124
:1007C000AF919F918F917F916F915F914F913F91E9
:1007D0002F910F900BBE0F900FBE0F901F9018958A
:1007E0001F920F920FB60F9211240BB60F922F93F8
:1007F0003F934F935F936F937F938F939F93AF93A9
:10080000BF93EF93FF93E0910602F09107021995D1
:10081000FF91EF91BF91AF919F918F917F916F91D8
:100820005F914F913F912F910F900BBE0F900FBE94
:100830000F901F9018951F920F920FB60F921124D0
:100840000BB60F922F933F934F935F936F937F93CA
:100850008F939F93AF93BF93EF93FF93E091040225
:10086000F09105021995FF91EF91BF91AF919F9182
:100870008F917F916F915F914F913F912F910F9049
:100880000BBE0F900FBE0F901F901895611571054C
:1008900079F0FB0101900020E9F73197AF01461B89
:1008A000570BDC01ED91FC910280F381E02D19944E
:1008B00080E090E008951F920F920FB60F921124DE
:1008C0000BB60F922F933F934F935F936F937F934A
:1008D0008F939F93AF93BF93EF93FF9382E495E041
:1008E0004FDDFF91EF91BF91AF919F918F917F91DC
:1008F0006F915F914F913F912F910F900BBE0F9091
:100900000FBE0F901F9018951F920F920FB60F9267
:1009100011240BB60F922F938F939F93EF93FF9316
:10092000E0915205F09153058081E0915805F091D6
:10093000590582FD12C0908180915B058F5F8F7396
:1009400020915C05821751F0E0915B05F0E0EE5BD1
:10095000FA4F958F80935B0501C08081FF91EF91E5
:100960009F918F912F910F900BBE0F900FBE0F9004
:100970001F9018951F920F920FB60F9211240BB66D
:100980000F922F933F934F935F936F937F938F9328
:100990009F93AF93BF93EF93FF93E0E0F0E019953F
:1009A000FF91EF91BF91AF919F918F917F916F9147
:1009B0005F914F913F912F910F900BBE0F900FBE03
:1009C0000F901F901895FC018081823079F018F407
:1009D000813031F00895833079F0843099F00895B2
:1009E00070E07093890060938800089570E07093C0
:1009F0009D0060939C00089570E07093A90060933F
:100A0000A800089570E0709399006093980008958D
:100A100080913B038823A9F140911002509111026B
:100A2000609112027091130222E433E0809140033E
:100A3000909141030E945911811102C080E00895F4
:100A400040913C0350913D0360913E0370913F0300
:100A5000411551056105710591F022E433E0809163
:100A60004003909141030E945911882339F3109259
:100A70003C0310923D0310923E0310923F031092EC
:100A80003B0381E008958F929F92AF92BF92EF92C5
:100A9000FF920F931F93CF934B015C01C42F809162
:100AA000100290911102A0911202B09113028815C8
:100AB0009905AA05BB05F9F0ABDF811102C080E002
:100AC00020C082E4E82E83E0F82E00E012E020E06F
:100AD00030E0B501A40180914003909141030E9450
:100AE000CE10882361F38092100290921102A0929E
:100AF0001202B092130280913B03C82BC0933B03B8
:100B000081E0CF911F910F91FF90EF90BF90AF9038
:100B10009F908F9008954F925F926F927F928F92E5
:100B20009F92AF92BF92CF92DF92EF92FF920F937C
:100B30001F93CF93DF93EC0142305105610571059E
:100B400010F480E077C089859A85AB85BC850196D5
:100B5000A11DB11D84179507A607B70790F3CB8891
:100B6000DC88ED88FE888F89803129F4BB27A72F88
:100B7000962F852F09C0DB01CA01E7E0B695A7953E
:100B800097958795EA95D1F7480159012A013B01CC
:100B9000C80ED91EEA1EFB1E809110029091110210
:100BA000A0911202B0911302C816D906EA06FB06FC
:100BB00081F48F898031A1F4B301A2015527662702
:100BC0007727440F551FFA01EE5BFC4F918280821C
:100BD00018C040E0C701B60156DF8111EACFB1CF9E
:100BE000B301A2014F77552766277727440F551F7A
:100BF000440F551FFA01EE5BFC4F80829182A28266
:100C0000B38280913B03816080933B038A89823069
:100C100080F08D819E81AF81B885C80ED91EEA1EF5
:100C2000FB1EC0923C03D0923D03E0923E03F09243
:100C30003F0381E0DF91CF911F910F91FF90EF90E3
:100C4000DF90CF90BF90AF909F908F907F906F90EC
:100C50005F904F9008958F929F92AF92BF92CF92E4
:100C6000DF92EF92FF920F931F93CF93DF93FC01DC
:100C700081859285A385B4850196A11DB11D841738
:100C80009507A607B70710F480E05AC083889488B8
:100C9000A588B6888789803129F4BB27A72F962F8E
:100CA000852F09C0DB01CA01C7E0B695A7959795C6
:100CB0008795CA95D1F7E9016A017B018F01BC01D3
:100CC000CD01680D791D8A1D9B1D809010029090AA
:100CD0001102A0901202B0901302681579058A05DE
:100CE0009B0591F4F8018789803199F4DD24EE2485
:100CF000FF24C601880F991FFC01EE5BFC4F808129
:100D00009181A0E0B0E017C040E0BDDE8111EACFE4
:100D1000BBCFE894C7F8DD24EE24FF24C601880F7A
:100D2000991F880F991FFC01EE5BFC4F8081918118
:100D3000A281B381BF7088839983AA83BB8381E03A
:100D4000DF91CF911F910F91FF90EF90DF90CF90A7
:100D5000BF90AF909F908F9008952F923F924F92A7
:100D60005F926F927F928F929F92AF92BF92CF923B
:100D7000DF92EF92FF920F931F93CF93DF93CDB744
:100D8000DEB72B970FB6F894DEBF0FBECDBF7C0148
:100D9000FE013196CE010C966F0130E231938E1731
:100DA0009F07E1F7DA0130E087E09D91992331F167
:100DB0009E3231F48A3009F455C138E08AE0F5CF2B
:100DC000E8E0F1E04491442321F031969413FACF06
:100DD00049C1831708F446C14FED490F4E3508F05D
:100DE00041C141E0430FF601E30FF11D3FE9390F27
:100DF0003A3108F490529083342FD7CF89818032D2
:100E000009F430C1322E8B01DB015B968D919C91F0
:100E10005C97F701948F838F16961D921D921D92F9
:100E20001C921997FB011286138614861586B12C25
:100E3000F80182859385A485B585438954896589A0
:100E4000768984179507A607B70708F05BC025E0E9
:100E5000B695A795979587952A95D1F7F82FFF70A6
:100E6000AF2ED80115968C91823008F4FBC0C801D2
:100E70000E940A1297FDF6C0F80182859385A48529
:100E8000B5854F96A11DB11D82879387A487B5872D
:100E9000F0E2AF9EB00111246E5B7C4F61157105CD
:100EA00009F4E0C0DB018C91882319F0853EC1F480
:100EB000DBC0B1100EC0F701A28A809110029091A0
:100EC0001102A0911202B091130286879787A08B1E
:100ED000B18BDB018C91882399F0BB24B394A8CF0C
:100EE0004BE050E0C6010E947B20892B09F0A0CF87
:100EF000832D8073803309F4B5C0432D6A2DAFC0B4
:100F0000BB24B394832D8271823109F0ABC0BB2026
:100F100031F0C701C1D3009709F076C0A3C0F80132
:100F20008581823009F49EC0C8018DD7882309F4D9
:100F300099C0D8015B96ED91FC915C9716968D90C7
:100F40009D90AD90BC901997B2E08B1A9108A108C2
:100F5000B108058404C0880C991CAA1CBB1C0A9407
:100F6000D2F786859785A089B189880E991EAA1E19
:100F7000BB1E2480E1E08E1A9108A108B10822204E
:100F800001F124013501420C511C611C711C40DD32
:100F9000882309F467C0E2E4F3E0119225E0E2342B
:100FA000F207D9F740921002509211026092120299
:100FB0007092130280913B03816080933B032A94DB
:100FC000DECFD8015B96ED91FC915C9780E092E0DA
:100FD000A0E0B0E0058404C0880F991FAA1FBB1FC2
:100FE0000A94D2F7F8014389548965897689840F78
:100FF000951FA61FB71F838B948BA58BB68BD7012C
:1010000052961C9282E493E020E2FC0111922A9510
:10101000E9F72BE0F601DC0101900D922A95E1F74A
:1010200021E238E2DC0151963C932E93509740E048
:1010300058E01F965C934E931E9753963C932E93C5
:10104000529759963C932E93589757965C934E938C
:101050005697DEDC882331F0432DF7016289C70102
:1010600058DA05C080E003C0B11037CF24CF2B96EB
:101070000FB6F894DEBF0FBECDBFDF91CF911F91A9
:101080000F91FF90EF90DF90CF90BF90AF909F9027
:101090008F907F906F905F904F903F902F9008952A
:1010A000CF93DF93EC018D81882309F18C8187FF39
:1010B0001BC0CE01F1D2FC01892BC9F08D81823099
:1010C00040F48B899C89AD89BE89848F958FA68FCA
:1010D000B78F8F89988DA98DBA8D938F828FB58B9D
:1010E000A48B8C818F778C83DF91CF9191CC80E022
:1010F000DF91CF9108958F929F92AF92BF92CF923E
:10110000DF92EF92FF920F931F93CF93DF93EC0147
:101110008D81811102C080E077C00B891C892D89E7
:101120003E890417150726073707A8F36A017B01D4
:10113000823029F4CA86DB86EC86FD860DC0C11498
:10114000D104E104F10451F41E821F82188619862D
:101150001A861B861C861D8681E056C08A849B8465
:10116000AC84BD84EB8DFC8D258530E0275F3F4F3F
:10117000B501A4014150510961097109022E04C051
:1011800076956795579547950A94D2F7D701C6018A
:101190000197A109B10904C0B695A79597958795C0
:1011A0002A95D2F784179507A607B70720F0892854
:1011B0008A288B2871F44F89588D698D7A8D4E83DA
:1011C0005F83688779874C015D018E010A5F1F4F3D
:1011D00015C0841B950BA60BB70BF5CF4E815F8115
:1011E0006885798598018B8D9C8D35DD91E0891A14
:1011F0009108A108B108882309F48DCF81149104C6
:10120000A104B10459F796CFDF91CF911F910F91AF
:10121000FF90EF90DF90CF90BF90AF909F908F9016
:1012200008952F923F924F925F926F927F928F928A
:101230009F92AF92BF92CF92DF92EF92FF920F9365
:101240001F93CF93DF9300D01F92CDB7DEB78C01F1
:101250005B011A01DC0115968C9115978130C1F460
:1012600014968C9181FF14C082FF1CC0F801438941
:1012700054896589768982859385A485B585841787
:101280009507A607B70771F0C80135DF81110AC0BD
:1012900081E090E0D80113969C938E93129780E0A2
:1012A00090E030C1610182C05B968D919C915C970A
:1012B000FC0174802FEF270D2A013B0139E0769461
:1012C0006794579447943A95D1F7722E74207A0117
:1012D000F1E0FF22772009F475C080E092E08E19DA
:1012E0009F0946018C159D0508F44C01D8015B96B9
:1012F0002D913C915C9716968D919D910D90BC918E
:10130000A02D0297A109B109F901058404C0880F35
:10131000991FAA1FBB1F0A94D2F74685578560897B
:101320007189840F951FA61FB71F9C01AD01270D62
:10133000311D411D511D29013A01811432E09306EE
:1013400009F085C08091100290911102A0911202C3
:10135000B0911302481659066A067B0659F48FEFBE
:101360009FEFDC018093100290931102A093120270
:10137000B09313029501B301A201809140039091B3
:10138000410397D7882309F483CF9EEFB91AC81871
:10139000D908F80182859385A485B585880D991DA6
:1013A000A11DB11D82879387A487B587D8011A969E
:1013B0004D915D916D917C911D97C114D10409F0FF
:1013C00073CF83C0E114F10409F087CF16964D91D5
:1013D0005D916D917C9119974115510561057105DC
:1013E00059F457968D919D910D90BC91A02D009729
:1013F000A105B10531F520C09E012F5F3F4F2BDCC9
:10140000882309F44DCF89819A81AB81BC81F80191
:10141000238D348DF9012789203129F048EF5FEFC2
:101420006FEF7FE004C048EF5FEF60E070E084178B
:101430009507A607B70728F0C80105D581114DCF3C
:1014400027CFF80186839783A087B18746CFE11421
:10145000F10421F5D8011A964D915D916D917C9121
:101460001D9753968D919D910D90BC91A02D48177D
:1014700059076A077B0790F0CBDA882309F408CF75
:101480004092100250921102609212027092130266
:1014900080913B03816080933B0307C041E0C3011F
:1014A000B201F1DA882309F4F3CED501F701EE5B3E
:1014B000FC4F9F01280D391D2E173F0719F08D9104
:1014C0008193FACFA80CB91C62CFF8018389948963
:1014D000A589B68984179507A607B70738F4438B03
:1014E000548B658B768B848180688483F80184813A
:1014F00083FD02C0C10106C0C801D2DD882309F402
:10150000C7CEF8CF0F900F900F900F90DF91CF9133
:101510001F910F91FF90EF90DF90CF90BF90AF9011
:101520009F908F907F906F905F904F903F902F9003
:101530000895CF93DF931F92CDB7DEB7698341E063
:1015400050E0BE016F5F7F4F6CDE0F90DF91CF9157
:101550000895CF93DF93EC01A3DD882311F01D8262
:1015600081E0DF91CF910895CF93DF9360E08CE02D
:101570000E94B81460E088E00E94B814C7E0D0E090
:1015800060E084E00E94B81480916B0690E00C2E1D
:1015900002C0959587950A94E2F780FF02C061E04A
:1015A00001C060E088E00E94B81461E084E00E941D
:1015B000B814219728F761E08CE0DF91CF910C946B
:1015C000B814EF92FF920F931F93CF93DF93EC0128
:1015D0007B018A011B821A8288EE93E0A0E0B0E0D2
:1015E0008C839D83AE83BF8388E492E09983888354
:1015F0008DE190E00E94561F9A8F898F009779F0B5
:101600002DE1F701DC0101900D922A95E1F74CE004
:1016100050E0B801CE010C960E948820188EDF9110
:10162000CF911F910F91FF90EF900895CF93DF938B
:10163000FC018281938190935306809352068481AA
:101640009581A681B7818093540690935506A09307
:101650005606B093570680859185A285B385809301
:10166000580690935906A0935A06B0935B06EF0173
:101670002C96ACE5B6E089918D9386E0A936B80743
:10168000D1F7818D928D90936A068093690680E5EB
:1016900096E0DF91CF910895CF93DF93EC016E85B3
:1016A0007F858889998941E0EED9882341F08A892C
:1016B00020E2829FC00111248E5B9C4F02C080E01B
:1016C00090E0DF91CF9108958F929F92AF92BF9259
:1016D000CF92DF92EF92FF920F931F93CF93DF93FE
:1016E00000D01F92CDB7DEB7FC018581813069F54E
:1016F000948191FF2AC04389548965897689452B55
:10170000462B472B09F457C07F0140E050E0BA0157
:10171000CF01F1DC8823C9F0F7018788908CA18C78
:10172000B28CC38CD48C82E090E0A0E0B0E0F601F3
:1017300080839183A283B3839E012F5F3F4FB501C6
:10174000A401C60188DA811102C080E034C000E043
:1017500010E09801B501A401C601DDD98823A9F3E1
:1017600089809A80AB80BC80F6018789803129F01E
:1017700088EF9FEFAFEFBFE004C088EF9FEFA0E0DE
:10178000B0E088169906AA06BB06B0F2F701178AE0
:10179000108E118E128E138A148A158A168A8481ED
:1017A00080688483C7017CDC882379F240E050E0C4
:1017B000BA01C701A0DC0F900F900F900F90DF913E
:1017C000CF911F910F91FF90EF90DF90CF90BF903E
:1017D000AF909F908F9008954F925F926F927F92FB
:1017E000AF92BF92CF92DF92EF92FF920F931F932F
:1017F000CF93DF9300D01F92CDB7DEB78C01498322
:101800005A836B837C835901C12CD12C7601412CE6
:1018100082E0582E612C712C49815A816B817C8128
:101820009E012F5F3F4FC80116DA882351F1D30183
:10183000C201F801058404C0880F991FAA1FBB1FAD
:101840000A94D2F7C80ED91EEA1EFB1E49815A819E
:101850006B817C818789803129F088EF9FEFAFEF22
:10186000BFE004C088EF9FEFA0E0B0E04817590741
:101870006A077B0788F2F501C082D182E282F38297
:1018800081E00F900F900F900F90DF91CF911F91FB
:101890000F91FF90EF90DF90CF90BF90AF907F902F
:1018A0006F905F904F900895CF93DF93FC01258157
:1018B000222311F080E048C0EC01809104068031C1
:1018C000C1F482E08583178A108E118E128E80916A
:1018D000050690910606A0E0B0E025E0880F991F6C
:1018E000AA1FBB1F2A95D1F7838B948BA58BB68B30
:1018F00018C08032F9F683E0858340910706509145
:1019000008066091090670910A06478B508F618F17
:10191000728F9F012D5E3F4F8DEE95E05DDF882336
:1019200049F28DEE95E09C8F8B8F81E08C831E8237
:101930001F82188619861A861B861C861D861E869F
:101940001F86188A198A1A8ADF91CF910895EF921B
:10195000FF920F931F93CF93DF93CDB7DEB7C75599
:10196000D1090FB6F894DEBF0FBECDBF8C011C822B
:101970001B8280E3E82E82E0F82EFA82E9821E8242
:10198000CE01019691DFBE016F5F7F4FCE01CB96F6
:10199000F0D419A218A2FF8EEE8E1BA221968FAD55
:1019A0002197811113C0F8011382128288EE93E00F
:1019B000A0E0B0E084839583A683B78388E492E0B7
:1019C00091838083128E118E148622C026E145E811
:1019D00052E0BE01655C7F4FCE014E96BED9882392
:1019E00011F3CE01CB96B5DD49A95AA96BA97CA903
:1019F000CE014E9680DBBE01625E7F4FCE01019626
:101A0000B8D445E852E0BE016F5F7F4FC801D9DD11
:101A1000C801C95ADF4F0FB6F894DEBF0FBECDBF65
:101A2000DF91CF911F910F91FF90EF9008958F92CA
:101A30009F92AF92BF92CF92DF92EF92FF92CF939D
:101A4000DF93C82F81EE95E090934103809340038C
:101A5000CC2361F1C53010F080E00BC140E060E0C4
:101A600070E0CB0110D88823B9F320E1C29FC001F8
:101A700011248E5C9C4FFC01E254FE4F20812F7795
:101A800059F73C96408151816281738144365105FA
:101A90006105710508F33497C080D180E280F3803E
:101AA000C114D104E104F10421F4D6CFC12CD12C0E
:101AB000760140E0C701B6010E944305882361F228
:101AC00080914D0390914E038115924029F6A0918B
:101AD0005203AA2309F4C0CF6091500370915103BF
:101AE0006115710509F4B8CF20914F03222309F441
:101AF000B3CFA093FF052093F10580E030E041E0F3
:101B000050E0C82FFA01082E02C0EE0FFF1F0A9402
:101B1000E2F72E173F0739F08F5FC83091F789E061
:101B20008093FA0599CF8093FA052091580330915C
:101B300059032115310519F040E050E008C020910B
:101B400066033091670340916803509169032093C5
:101B5000F2053093F3054093F4055093F5054601E3
:101B60005701860E971EA11CB11C80920006909210
:101B70000106A0920206B0920306E0915303F09191
:101B80005403F0930606E0930506B0E00E943D1F63
:101B9000860E971EA81EB91E809207069092080610
:101BA000A0920906B0920A0685E0EE0FFF1F8A9503
:101BB000E1F7E150FE4FEF2FFF27E6958E0E9F1EB7
:101BC000A11CB11C8092FB059092FC05A092FD0522
:101BD000B092FE0520915503309156032115310531
:101BE00021F0A90160E070E008C0409162035091CB
:101BF00063036091640370916503D701C60188197E
:101C00009909AA09BB09840F951FA61FB71F04C015
:101C1000B695A79597958795CA95D2F78093F605BF
:101C20009093F705A093F805B093F905853F2FE051
:101C30009207A105B10510F48CE018C0853F9F4FB5
:101C4000A105B10510F480E111C080916E0390915F
:101C50006F03A0917003B091710380930706909376
:101C60000806A0930906B0930A0680E28093040652
:101C700081E0DF91CF91FF90EF90DF90CF90BF9008
:101C8000AF909F908F900895FC018081823049F041
:101C900018F4813079F00895833031F0843039F0D0
:101CA000089524E031E008C027E035E005C026E0D3
:101CB00030E002C023E032E081E090E0AC0101C0FE
:101CC000440F3A95EAF730916B06432B01C0880F19
:101CD0002A95EAF78095842380936B0645CC8F92F2
:101CE0009F92AF92BF920F931F93CF93DF93CDB785
:101CF000DEB7A1970FB6F894DEBF0FBECDBF19A215
:101D0000423008F44AE08E010F5D1F4F842E912C63
:101D1000A12CB12CA50194010E94F71EE62FB90158
:101D2000CA0101501109EA3014F4E05D01C0E95C18
:101D3000D801EC93232B242B252B61F7B80180E5E8
:101D400096E00E944604A1960FB6F894DEBF0FBE3F
:101D5000CDBFDF91CF911F910F91BF90AF909F901A
:101D60008F900895DC015996ED91FC915A97309728
:101D7000B9F083899489A589B6894285538564859C
:101D80007585841B950BA60BB70B811520E8920770
:101D9000A105B10538F08FEF9FE7A0E0B0E008950E
:101DA00080E090E00895CF93DF931F92CDB7DEB728
:101DB0006983DC01ED91FC910280F381E02D41E02B
:101DC00050E0BE016F5F7F4F19950F90DF91CF916B
:101DD0000895089580E090E008958091A002909188
:101DE000A10201969093A1028093A0020895809190
:101DF000A2029091A30201969093A3028093A20263
:101E00000895FC01818D928D009709F049C90895CC
:101E1000CF93DF93EC01898D9A8D009739F481E09F
:101E200090E09B838A8380E090E00AC0FC011382EB
:101E30001282F7D9E98DFA8D22813381232B79F72C
:101E4000DF91CF9108953F924F925F926F927F9270
:101E50008F929F92AF92BF92CF92DF92EF92FF92BA
:101E60000F931F93CF93DF93CDB7DEB72C970FB6A9
:101E7000F894DEBF0FBECDBF5C01DC015B968D9098
:101E80009C905C971696CD90DD90ED90FC90199704
:101E9000C114D104E104F10439F0BFEFCB1ADB0A1D
:101EA000EB0AFB0A312C07C0F401C080D180E2802C
:101EB000F38033243394F40181859285A385B4851E
:101EC0009C01AD012F5F3F4F4F4F5F4F29873A87EE
:101ED0004B875C87260137011D821E821F82188670
:101EE000F40181859285A385B4852D813E814F8142
:101EF0005885281739074A075B0708F063C08985AA
:101F00009A85AB85BC858C159D05AE05BF0550F443
:101F100082E0C82ED12CE12CF12C92E0492E512CDC
:101F2000612C712C9E012F5F3F4FB701A601C401A8
:101F30000E942B06882309F445C089819A81AB81D0
:101F4000BC81892B8A2B8B2B41F0260137019FEF17
:101F5000491A590A690A790A05C0C414D504E60465
:101F6000F70491F02D813E814F8158852F5F3F4FBF
:101F70004F4F5F4F2D833E834F8358873FEFC31AE8
:101F8000D30AE30AF30AACCF0FEF1FEF2FEF3FE0C6
:101F9000B301A201C4010E948B05882399F0D501E9
:101FA00016964D915D916D917C9119974115510552
:101FB0006105710549F093018201C4010E948B05FE
:101FC000811102C080E02AC0D50116964D925D9223
:101FD0006D927C921997332051F0D301C201019682
:101FE000A11DB11DF40180839183A283B383F50108
:101FF0008789908DA18DB28D892B8A2B8B2B69F4CB
:10200000D50157964D925D926D927C925A97149697
:102010008C911497806814968C9381E02C960FB65F
:10202000F894DEBF0FBECDBFDF91CF911F910F910E
:10203000FF90EF90DF90CF90BF90AF909F908F90E8
:102040007F906F905F904F903F9008958FB7F89476
:1020500080916E068FBF089561E0FC01848188D471
:1020600080916D06811110926D0608958EBD00005D
:102070000DB407FEFDCF8EB508958FEFF7CF0F9308
:102080001F93CF93DF93EB0152D58B01F6DF8F3F88
:1020900041F04DD5601B710B6C177D07B8F380E0E4
:1020A00001C081E0DF91CF911F910F910895CF93EF
:1020B000DF93EC018E81882379F08F8198859C01D4
:1020C0002F5F3F4F38872F838230924010F4D5DF47
:1020D000F4CFCE01C1DF1E82DF91CF9108958CBD78
:1020E0009DBD0895CF93DF93EC0180916D06811122
:1020F00008C081E080936D068091DF059091E00536
:10210000EEDF60E08C81DF91CF9132C48F929F929D
:10211000AF92BF92FF920F931F93CF93DF93EC0187
:10212000F62E49015A01C3DFCE01DCDF6CE271E01B
:10213000CE01A5DF8F2D806499DF08E110E0D50185
:10214000C401002E04C0B695A795979587950A946B
:10215000D2F78CDF08501109083F8FEF180779F785
:10216000FF2029F088E0F81204C087E803C085E961
:1021700001C08FEF7BDF10E080DF8A8787FF04C01C
:102180001F3F11F01F5FF8CFDF91CF911F910F918B
:10219000FF90BF90AF909F908F900895AF92BF92A5
:1021A000CF92DF92EF92FF920F931F93CF93DF9323
:1021B000EC016901C801820F931F8130924008F041
:1021C00068C08E81882371F088819981AA81BB8142
:1021D00084179507A607B70729F48F819885C81635
:1021E000D90688F5488359836A837B838B8583303E
:1021F00039F089E0440F551F661F771F8A95D1F784
:102200009A01AB0161E1CE0181DF882319F083E0FF
:102210008D833FC08CD45B0130DF8A878F3F41F4D0
:1022200086D46A197B096D327140B0F38FE003C028
:102230008E3F29F08DE08D83CE010EDF2AC01886F7
:102240001F8281E08E838F8198858C159D0538F4DF
:1022500014DF8F819885019698878F83F4CF67016B
:10226000E00EF11EEC14FD0429F007DFF601819366
:102270006F01F8CF8F819885080F191F18870F837A
:102280008985882319F00115124038F0CE010FDF3F
:1022900004C0CE01E1DE80E001C081E0DF91CF919A
:1022A0001F910F91FF90EF90DF90CF90BF90AF9074
:1022B0000895EF92FF920F931F93CF93DF93EC015A
:1022C0007901411551056105710511F482E134C0B0
:1022D0008B85833039F089E0440F551F661F771FC7
:1022E0008A95D1F79A01AB0168E1CE010FDF88230F
:1022F00011F084E021C08EEFB9DE87018EEFF81A6D
:10230000F80181918F01B2DEE016F106C9F78FEF77
:10231000ADDE8FEFABDEB1DE8A878F71853029F0BD
:1023200081E18D83CE0198DE08C068E572E0CE01C0
:10233000A6DE811106C085E18D83CE018DDE80E0B1
:1023400011C020E030E0A9016DE0CE01DFDE811197
:1023500007C093DE811104C0CE017EDE81E002C0A1
:1023600084E1EACFDF91CF911F910F91FF90EF9021
:102370000895FC01DB0112968D919C911397938334
:10238000828380E392E09183808314968C911497EA
:10239000848315968C911597858316964D915D9142
:1023A0006D917C91199746835783608771871A9640
:1023B0004D915D916D917C911D9742875387648704
:1023C00075871E964D915D916D917C9151974687D1
:1023D0005787608B718B52968C915297828B539654
:1023E0004D915D916D917C915697438B548B658B8C
:1023F000768B57964D915D916D917C915A97478B55
:10240000508F618F728F5B968D919C915C97948FAA
:10241000838F08954F925F926F927F92AF92BF9297
:10242000CF92DF92EF92FF920F931F93CF93DF93A0
:102430001F92CDB7DEB7FC012581222309F4C0C06D
:10244000848180FFBDC083899489A589B68942842F
:1024500053846484758484159505A605B70509F42D
:10246000AFC06F015201F1E0BF22D6015B968D91A2
:102470009C915C97B301A20139E0769567955795D9
:1024800047953A95D1F7223071F4FC01828D938DF6
:10249000A48DB58D8A019B01080F191F2A1F3B1FB0
:1024A000C901B8014AC0DC0114961C9111501423D3
:1024B000A114B104F9F411111DC04528462847287C
:1024C00051F4F6018789908DA18DB28D8683978313
:1024D000A087B1870FC0D60116964D915D916D9181
:1024E0007C91199796012A5F3F4F0E942B06882303
:1024F00009F466C0F601238D348D86819781A0850D
:10250000B1850297A109B109AC01BD01F9010584AA
:1025100004C0440F551F661F771F0A94D2F78685A3
:102520009785A089B189840F951FA61FB71FBC018D
:10253000CD01610F711D811D911DD60114962C9145
:1025400026FF0DC0409010025090110260901202C0
:1025500070901302461657066806790699F440E013
:102560000E944305882361F1F501EE5BFC4FDE011B
:1025700011969F012F5F3F4F2E173F0791F08191DA
:102580008D93FACFFE0131967F0101E010E09501B5
:10259000AB01BC018091400390914103FFDD882392
:1025A00079F0F60182859385A485B5850196A11DF4
:1025B000B11D82879387A487B587898190E002C087
:1025C0008FEF9FEF0F90DF91CF911F910F91FF90B1
:1025D000EF90DF90CF90BF90AF907F906F905F9023
:1025E0004F900895FC01818D928D009709F012CFD4
:1025F0008FEF9FEF08950F931F93CF93DF93FC010D
:10260000818D928D0097B1F0EF0104DF8C010F3FB7
:102610008FEF180791F0898D9A8DFC0142855385C3
:102620006485758541505109610971090E947B08D3
:10263000C80105C080E090E002C08FEF9FEFDF91FE
:10264000CF911F910F9108951092AC021092AD029C
:102650001092AE021092AF021092A8021092A9023C
:102660001092AA021092AB0208951092B802109232
:10267000B9021092BA021092BB021092B0021092EC
:10268000B1021092B2021092B3021092B4021092F0
:10269000B5021092B6021092B70208954F925F925F
:1026A0006F927F928F929F92AF92BF92CF92DF9262
:1026B000EF92FF920F931F93CF93DF93EC01188655
:1026C00019861A861B8660E08E8152D103E010E0E5
:1026D000C8010197F1F761E08E814AD183E290E071
:1026E0000197F1F760E08E8143D1C8010197F1F7BE
:1026F0008C819D819927FC01E455FE4F6491FC017A
:10270000EA59FE4FE491F0E0EE0FFF1FE85EFE4F46
:102710008591949100EF19E422E030E0462F5DD2DC
:10272000611571058105910549F0DC01CB01019628
:10273000A11DB11D9C01AD015F7003C020E030E020
:10274000A901288739874A875B87A4E6B0E00E9401
:102750003D1F2AEF36E140E050E00E94191F290199
:102760003A01C0D14B015C0189E1C82ED12CE12C8A
:10277000F12CB8D1DC01CB0188199909AA09BB0950
:10278000883E9340A105B105A0F321E0C21AD1080B
:10279000E108F10888EE880E83E0981EA11CB11CA8
:1027A000C114D104E104F10421F7C301B201DF91A6
:1027B000CF911F910F91FF90EF90DF90CF90BF903E
:1027C000AF909F908F907F906F905F904F90089503
:1027D0008F929F92AF92BF92CF92DF92EF92FF9231
:1027E0000F931F93CF93DF936B017C01142F9B01F9
:1027F000AC010E94F31E882319F064E972E027C03F
:1028000046015701E894B7F82FEF3FEF4FE75FE736
:10281000C501B4010E94F31E81110DC02FEF3FEFDF
:102820004FE75FE7C501B4010E943D1D18161CF477
:1028300068E972E00CC02FEF3FEF4FE75FE4C7019C
:10284000B6010E948C1E181694F46CE972E080E5C3
:1028500096E0DF91CF911F910F91FF90EF90DF9065
:10286000CF90BF90AF909F908F900C9446042FEF25
:102870003FEF4FE75FECC701B6010E943D1D87FDAA
:10288000E4CF20E030E0A901C701B6010E943D1D60
:1028900087FF0AC06DE280E596E085DAEC01F7FA81
:1028A000F094F7F8F09402C0C0E0D0E000E060E0FF
:1028B00070E080E09FE3101741F020E030E040E25C
:1028C00051E40E94411D0F5FF6CFA70196010E94BF
:1028D000D91C6B017C010E94AE1D4B015C014AE0DA
:1028E000FED9C80FD91F1123A9F1C501B4010E9457
:1028F000DA1D9B01AC01C701B6010E94D81C6B0117
:102900007C016EE280E596E04EDAC80FD91F20E028
:1029100030E040E251E4C701B6010E94901E4B0135
:102920005C010E94AE1D6B01E12CF12C4AE0C70155
:10293000B601D5D9C80FD91FC701B6010E94DA1D4B
:102940009B01AC01C501B4010E94D81C6B017C0144
:102950001150E9F6CE01DF91CF911F910F91FF90B9
:10296000EF90DF90CF90BF90AF909F908F900895A1
:10297000362F90E0FC01EE50FE4F4491FC01E455EF
:10298000FE4F2491FC01EA59FE4F9491992309F4DA
:102990006CC0442309F455C050E0FA013197E2318C
:1029A000F10508F04EC08827EE58FF4F8F4F0C946A
:1029B000351F809180008F7707C0809180008F7DC8
:1029C00003C080918000877F809380003AC084B5E7
:1029D0008F7702C084B58F7D84BD33C08091B000F5
:1029E0008F7703C08091B0008F7D8093B00029C0A5
:1029F000809190008F7707C0809190008F7D03C0F9
:102A000080919000877F809390001BC08091A000F0
:102A10008F7707C08091A0008F7D03C08091A000B8
:102A2000877F8093A0000DC0809120018F7707C021
:102A3000809120018F7D03C080912001877F80934A
:102A40002001E92FF0E0EE0FFF1FE45BFE4FA591A0
:102A5000B4919FB7F894311104C08C91209528232C
:102A600002C0EC912E2B2C939FBF0895CF93DF9340
:102A700090E0FC01E455FE4F2491FC01EA59FE4F21
:102A80008491882361F190E0880F991FFC01EE5C2E
:102A9000FE4FC591D491FC01E45BFE4FA591B4912A
:102AA000611109C09FB7F89488812095822388839B
:102AB000EC912E230BC0623061F49FB7F8948881AB
:102AC000322F309583238883EC912E2B2C939FBF3C
:102AD00006C08FB7F894E8812E2B28838FBFDF9133
:102AE000CF9108953FB7F894809174069091750640
:102AF000A0917606B091770626B5A89B05C02F3F1A
:102B000019F00196A11DB11D3FBFBA2FA92F982F13
:102B10008827820F911DA11DB11DBC01CD0142E08E
:102B2000660F771F881F991F4A95D1F708952FB711
:102B3000F894609170067091710680917206909180
:102B400073062FBF08951F920F920FB60F92112494
:102B50002F933F938F939F93AF93BF938091700672
:102B600090917106A0917206B091730630916F0634
:102B700023E0230F2D3720F40196A11DB11D05C0C0
:102B800026E8230F0296A11DB11D20936F068093A6
:102B9000700690937106A0937206B09373068091AD
:102BA000740690917506A0917606B091770601960D
:102BB000A11DB11D8093740690937506A0937606AF
:102BC000B0937706BF91AF919F918F913F912F91D5
:102BD0000F900FBE0F901F901895CF92DF92EF923B
:102BE000FF920F931F93E82FF92F05C00150110991
:102BF0002109310961F1908196239417B9F305C039
:102C0000015011092109310911F190819623941382
:102C1000F7CFC12CD12CE12CF12C0AC08FEFC81AB0
:102C2000D80AE80AF80A0C151D052E053F0579F0AB
:102C300080818623841791F36C2D7D2D8E2D9F2D01
:102C40001F910F91FF90EF90DF90CF90089560E07B
:102C500070E080E090E01F910F91FF90EF90DF9087
:102C6000CF900895CF93DF93CDB7DEB7C856D10983
:102C70000FB6F894DEBF0FBECDBF789484B58260E6
:102C800084BD84B5816084BD85B5826085BD85B510
:102C9000816085BD80916E00816080936E0010928E
:102CA0008100809181008260809381008091810009
:102CB000816080938100809180008160809380009A
:102CC0008091B10084608093B1008091B0008160F8
:102CD0008093B000809191008260809391008091F8
:102CE0009100816080939100809190008160809339
:102CF00090008091A10082608093A1008091A1004A
:102D000081608093A1008091A00081608093A000E9
:102D10008091210182608093210180912101816055
:102D20008093210180912001816080932001809116
:102D30007A00846080937A0080917A008260809328
:102D40007A0080917A00816080937A0080917A0085
:102D5000806880937A001092C100E0915205F09152
:102D6000530582E08083E0914E05F0914F0510827B
:102D7000E0915005F09151058FEC808310925A0537
:102D8000E0915605F091570586E08083E091540567
:102D9000F0915505808180618083E0915405F09128
:102DA0005505808188608083E0915405F091550538
:102DB000808180688083E0915405F0915505808181
:102DC0008F7D808361E085E351DE8091100688234A
:102DD00021F08BE096E00E94A90A1092EC05109277
:102DE000EA051092E7051092E60585E38093E50574
:102DF0009EDE8B0161E08091E50538DE61E0809127
:102E0000E505B6DDFFB6F8948091BC02811123C0C0
:102E1000EBE9F1E08491E1EEF1E09491E82FF0E04C
:102E2000EE0FFF1FEE5CFE4FA591B491EC91E923EC
:102E300019F461E085E39CDD61E085E317DE8CB584
:102E400080618CBD8CB580648CBD61E084E30EDE56
:102E500061E083E30BDE8091BC028F5F8093BC0254
:102E6000FFBE82E58093DF051092E0058091DF05CB
:102E70009091E00534D94AE0F42E8FEFF7D8FA9418
:102E8000F110FBCF81EE95E02DD920E030E0A901D3
:102E900060E081EE95E03AD9F82E8093EB0521E0D1
:102EA000821741F044DE601B710B613D774068F38F
:102EB00081E050C02AEA31E040E050E068E081EE75
:102EC00095E024D982FF03C0F092EC050FC034E0F6
:102ED000F32ED3D88093EB05FA94F110FACF8A3A07
:102EE00011F082E037C082E08093EC058091EC0520
:102EF000823031F4C12CD12CE12C20E4F22E03C01D
:102F0000C12CD12C760120E030E0A90167E381EEED
:102F100095E0FCD8A701960169E281EE95E0F6D82C
:102F20008093EB05882341F002DE601B710B613D4D
:102F3000774048F388E00EC08091EC058230D1F4F0
:102F400020E030E0A9016AE381EE95E0DFD8882334
:102F500039F086E08093E60581EE95E07DD823C0C8
:102F60008CD8807C803C19F483E08093EC0585D874
:102F700084D883D881EE95E06FD880E58093DF0513
:102F80001092E00581E00E94170D882339F08BE054
:102F900096E00E94540C882331F008C080E00E9423
:102FA000170D8111F4CF66E572E002C065E772E0AB
:102FB00082E495E00E94460462E772E082E495E0D4
:102FC0000E9446041EAE1DAE80E392E09CAF8BAF24
:102FD00021961FAE219719A218A29F8F8E8F1BA238
:102FE000C12CB12C7E01EBE3EE0EF11C0BE016E0E0
:102FF0008C2D9B2DFC01EB57FD4F20812F3209F4C6
:103000000196DC01AB57BD4FFE01E85AFF4F20E0AF
:1030100030E0AF016D916F3249F0662339F02F5FD8
:103020003F4F019661932C303105A1F7FA01E20F71
:10303000F31F1082FC01EB57FD4F20812F3209F462
:103040000196C82EB92EFC01EB57FD4F80818111EE
:10305000A8C31C821B8280E392E09A8389831E822C
:1030600022E0B801CE0101960E94AD06882309F442
:10307000B9C3CE0101960E94640B882309F4B2C340
:10308000CE0101960E944C0B009709F4ABC325EECC
:10309000FC0120831E820E940805882309F4A2C334
:1030A00096E00B30190719F0C8010E94A90ACE0159
:1030B00001960E94A70CCE0101960E94160B8091EA
:1030C000690690916A06009759F00E94A90A8091BA
:1030D000690690916A0682D710926A061092690674
:1030E00087EF9EE09093070280930602809169002B
:1030F0008C6080936900E99A8DEE9EE090930502C2
:103100008093040280916900836080936900E89A4B
:1031100092E0292E312C07E113E009DD80913A037A
:10312000882309F4E8C08091380390913903892BF2
:1031300009F434C380912B0390912C03892B09F45B
:103140002DC36091A2027091A302072E000C880B80
:10315000990B32D520E030E040EA51E492D420E0EF
:1031600030E040E752E4DCD560931D0370931E030A
:1031700080931F03909320031092A3021092A20247
:103180006091A0027091A102072E000C880B990B90
:1031900013D520E030E040EA51E473D420E030E081
:1031A00040E752E4BDD56093190370931A038093EE
:1031B0001B0390931C031092A1021092A002809115
:1031C00017039091180329E0289FF001299FF00D23
:1031D0001124E354FD4F20912903208340911D03C6
:1031E00050911E0360911F0370912003418352830D
:1031F000638374834091190350911A0360911B03F8
:1032000070911C0345835683678370870196909362
:103210001803809317030A9709F06AC060E08CE2F4
:1032200096E00E94E3048CE296E00E94440E60E087
:103230008AE296E00E94E3048AE296E00E94440E4D
:10324000CE0101960E94A70CCE0101960E94160B9A
:103250008DEBE82E82E0F82EE0916906F0916A0687
:10326000309759F18581882341F1F701608170E041
:1032700080E090E04AE00E946F0E62E972E080E533
:1032800096E00E944604F7016181728183819481F6
:1032900042E09EDA62E972E080E596E00E94460430
:1032A000F701658176818781908542E091DA62E756
:1032B00072E080E596E00E944604F9E0EF0EF11C12
:1032C0000E151F0549F68091690690916A060097D0
:1032D00059F00E94A90A8091690690916A067ED6EB
:1032E00010926A0610926906109218031092170342
:1032F00010923A0353C28EE296E0D0D921E06431B5
:103300007105810591050CF020E0209337036431AD
:103310007105810591050CF0EBC080913603811198
:10332000A4D98EE296E0BAD964517109072E000C37
:10333000880B990B41D46B017C016093250370933A
:10334000260380932703909328032091AC023091A9
:10335000AD024091AE025091AF022BD34B015C0104
:103360006093AC027093AD028093AE029093AF0273
:103370002091A8023091A9024091AA025091AB027B
:10338000C701B60115D320E030E040E751E4C8D4CE
:10339000A9966CAF7DAF8EAF9FAFA99720E030E0CC
:1033A00040EF51E4C701B601BBD42B013C0120E042
:1033B00030E0A901C501B401B3D49B01AC01C30144
:1033C000B201F7D29B01AC01A9966CAD7DAD8EAD7B
:1033D0009FADA997EED24B015C01609321037093DE
:1033E0002203809323039093240320E030E04EEFE8
:1033F00052E492D41816A4F420E030E0A901C501EB
:10340000B4018AD4181664F480E090E0AEEFB2E420
:103410008093210390932203A0932303B09324036A
:103420008090210390902203A0902303B090240366
:1034300020E030E04EEF52ECC501B4011ED387FF0F
:1034400014C020E030E0A901C501B40116D387FF04
:103450000CC080E090E0AEEFB2EC8093210390933B
:103460002203A0932303B0932403409021035090A0
:103470002203609023037090240320E030E040E0BA
:1034800053E4C301B20195D264D3B62E60932B03EB
:1034900070932C03A301920160E070E080E093E45C
:1034A00087D257D3A62E6093380370933903309296
:1034B0002A03209229036B2D8CE296E00E94E304FC
:1034C0008CE296E00E94440E6A2D8AE296E00E9409
:1034D000E3048AE296E00E94440EC092A802D092D1
:1034E000A902E092AA02F092AB0221E020933503F8
:1034F00080913703811152C18FE396E0CFD86D5090
:103500007109072E000C880B990B56D36B017C01B7
:1035100060933103709332038093330390933403A9
:103520002091B8023091B9024091BA025091BB0289
:1035300040D22B013C016093B8027093B902809392
:10354000BA029093BB022091B4023091B50240912F
:10355000B6025091B702C701B6012AD24B015C01F5
:103560006093B0027093B1028093B2029093B30261
:1035700020E030E040E151E4C701B601D1D3A99683
:103580006CAF7DAF8EAF9FAFA99726EA3BE944ECC5
:103590005BE3C301B201C4D39B01AC01A9966CAD3E
:1035A0007DAD8EAD9FADA99704D22B013C0120E0EB
:1035B00030E040E850E4C501B401B2D39B01AC0156
:1035C000C301B201F6D14B015C0160932D037093EE
:1035D0002E0380932F039093300320E030E040E2ED
:1035E00051E4C701B60149D287FF70C0809135030D
:1035F00081113BD820E030E04EEF52E4C501B40128
:103600008BD31816A4F420E030E0A901C501B40161
:1036100083D3181664F480E090E0AEEFB2E48093B8
:103620002D0390932E03A0932F03B093300380902B
:103630002D0390902E03A0902F03B090300320E034
:1036400030E04EEF52ECC501B40117D287FF14C031
:1036500020E030E0A901C501B4010FD287FF0CC002
:1036600080E090E0AEEFB2EC80932D0390932E03B8
:10367000A0932F03B093300380902D0390902E03DE
:10368000A0902F03B090300320E030E040E053E4FE
:10369000C501B4018ED15DD270932C0360932B03CE
:1036A000A501940160E070E080E093E481D151D203
:1036B00070933903609338031092350381E080934F
:1036C000360310922A03109229034AC080913603D0
:1036D000882321F00E9435130E94241320E030E05B
:1036E00040EE50E46091B0027091B1028091B2025C
:1036F0009091B30215D34B015C0120E030E040E231
:1037000050E4C701B6010CD39B01AC01C501B40163
:1037100050D11FD2603871053CF461389FEF7907B2
:103720002CF461E87FEF02C06FE770E0CB018058B6
:103730009F4F90932C0380932B0380E890E0861B8F
:10374000970B909339038093380310923603E1E08E
:10375000E093350381E090E090932A03809329035E
:1037600060912B038CE296E00E94E3048CE296E0E9
:103770000E94440E609138038AE296E00E94E304BE
:103780008AE296E00E94440EC092B402D092B50242
:10379000E092B602F092B7020E9424130E944F02F8
:1037A000BCCCF701858181111DC021E0B801C701A2
:1037B0000E94AD06D82E26E00B30120761F0C8013A
:1037C0000E94A90ADD2009F472CC902F812F870175
:1037D000E92EF82E0DCC882309F469CC8E01025E07
:1037E0001F4FF3CFF6E00B301F0709F460CC5CCC21
:1037F00061E08CE03BD961E087E038D961E088E0A6
:1038000035D961E084E032D910926B060E94B40A87
:1038100060E087E0ADC8CF92DF92EF92FF92CF9346
:10382000DF93E2E4F5E01382128288EE93E0A0E0F9
:10383000B0E084839583A683B7832EE132E03183A1
:10384000208325EC30E03587248724EC30E037876F
:10385000268720EC30E0318B208B21EC30E0338B5D
:10386000228B22EC30E0358B248B26EC30E0378B3A
:10387000268B118E128E138E148E10926C06EFED25
:10388000F5E020E520831182E1EEF5E01582168255
:103890001186138642E050E060E070E0448755876F
:1038A0006687778713A215A614A620E332E033A714
:1038B00022A717A6E0E5F6E013821282848395839F
:1038C000A683B78388E492E091838083128E118E61
:1038D0001486CFE3D6E089E390E09D838C8388E370
:1038E00090E09F838E8360E089E3C0D861E08E81A1
:1038F000BDD8188A87EEC82E83E0D82EE12CF12C93
:10390000CC86DD86EE86FF86CEE2D6E087E390E0C9
:103910009D838C8386E390E09F838E8360E087E3C2
:10392000A5D861E08E81A2D8188ACC86DD86EE8685
:10393000FF86ECE2F6E081E0808384E0818358DF5B
:1039400080916B06837F80936B060E94B40AE0E847
:10395000F0E08081816880838CE080938100109208
:1039600089001092880061E08BE080D8EAE2F6E0FE
:1039700083E0808381833CDF80916B068F75809329
:103980006B060E94B40AE0EAF0E0808181688083DF
:103990008BE08093A1001092A9001092A80061E032
:1039A00086E0DF91CF91FF90EF90DF90CF905EC8DF
:1039B0005058BB27AA270ED075C166D130F06BD105
:1039C00020F031F49F3F11F41EF45BC10EF4E0953A
:1039D000E7FB51C1E92F77D180F3BA17620773076C
:1039E0008407950718F071F49EF58FC10EF4E095E9
:1039F0000B2EBA2FA02D0B01B90190010C01CA01A9
:103A0000A0011124FF27591B99F0593F50F4503E53
:103A100068F11A16F040A22F232F342F4427585F45
:103A2000F3CF469537952795A795F0405395C9F75D
:103A30007EF41F16BA0B620B730B840BBAF0915015
:103A4000A1F0FF0FBB1F661F771F881FC2F70EC0B4
:103A5000BA0F621F731F841F48F487957795679587
:103A6000B795F7959E3F08F0B3CF9395880F08F070
:103A70009927EE0F979587950895D9D008F481E09E
:103A800008950CD00FC107D140F0FED030F021F4E2
:103A90005F3F19F0F0C0511139C1F3C014D198F350
:103AA0009923C9F35523B1F3951B550BBB27AA27BF
:103AB00062177307840738F09F5F5F4F220F331F31
:103AC000441FAA1FA9F333D00E2E3AF0E0E830D0FD
:103AD00091505040E695001CCAF729D0FE2F27D000
:103AE000660F771F881FBB1F261737074807AB07CE
:103AF000B0E809F0BB0B802DBF01FF2793585F4F43
:103B00002AF09E3F510568F0B6C000C15F3FECF35C
:103B1000983EDCF3869577956795B795F7959F5F07
:103B2000C9F7880F911D9695879597F90895E1E05B
:103B3000660F771F881FBB1F621773078407BA07BA
:103B400020F0621B730B840BBA0BEE1F88F7E09515
:103B5000089504D06894B111D9C00895BCD088F0FC
:103B60009F5790F0B92F9927B751A0F0D1F0660F69
:103B7000771F881F991F1AF0BA95C9F712C0B13084
:103B800081F0C3D0B1E00895C0C0672F782F882797
:103B9000B85F39F0B93FCCF3869577956795B395C3
:103BA000D9F73EF490958095709561957F4F8F4F32
:103BB0009F4F0895E89409C097FB3EF49095809537
:103BC000709561957F4F8F4F9F4F9923A9F0F92FE3
:103BD00096E9BB279395F695879577956795B79561
:103BE000F111F8CFFAF4BB0F11F460FF1BC06F5F47
:103BF0007F4F8F4F9F4F16C0882311F096E911C059
:103C0000772321F09EE8872F762F05C0662371F079
:103C100096E8862F70E060E02AF09A95660F771F8D
:103C2000881FDAF7880F9695879597F90895990F69
:103C30000008550FAA0BE0E8FEEF16161706E80776
:103C4000F907C0F012161306E407F50798F0621B97
:103C5000730B840B950B39F40A2661F0232B242B6C
:103C6000252B21F408950A2609F4A140A6958FEF8B
:103C7000811D811D089597F99F6780E870E060E0DD
:103C800008959FEF80EC089500240A9416161706F5
:103C900018060906089500240A941216130614063D
:103CA00005060895092E0394000C11F4882352F0A0
:103CB000BB0F40F4BF2B11F460FF04C06F5F7F4F58
:103CC0008F4F9F4F089557FD9058440F551F59F03F
:103CD0005F3F71F04795880F97FB991F61F09F3FF9
:103CE00079F087950895121613061406551FF2CF22
:103CF0004695F1DF08C0161617061806991FF1CF72
:103D000086957105610508940895E894BB27662798
:103D10007727CB0197F908958ADF08F48FEF08958C
:103D20000BD0C0CFB1DF28F0B6DF18F0952309F033
:103D3000A2CFA7CF1124EACFC6DFA0F3959FD1F37E
:103D4000950F50E0551F629FF001729FBB27F00D49
:103D5000B11D639FAA27F00DB11DAA1F649F66279E
:103D6000B00DA11D661F829F2227B00DA11D621FED
:103D7000739FB00DA11D621F839FA00D611D221FA7
:103D8000749F3327A00D611D231F849F600D211D8B
:103D9000822F762F6A2F11249F5750408AF0E1F02E
:103DA00088234AF0EE0FFF1FBB1F661F771F881F77
:103DB00091505040A9F79E3F510570F05CCFA6CFBF
:103DC0005F3FECF3983EDCF3869577956795B79562
:103DD000F795E7959F5FC1F7FE2B880F911D96958C
:103DE000879597F9089523DF880B990B0895A1E231
:103DF0001A2EAA1BBB1BFD010DC0AA1FBB1FEE1F65
:103E0000FF1FA217B307E407F50720F0A21BB30BAF
:103E1000E40BF50B661F771F881F991F1A9469F72B
:103E200060957095809590959B01AC01BD01CF0187
:103E30000895052E97FB16F400940FD057FD05D07A
:103E4000D6DF07FC02D046F408C050954095309567
:103E500021953F4F4F4F5F4F0895909580957095F6
:103E600061957F4F8F4F9F4F0895EE0FFF1F881F63
:103E70008BBF0790F691E02D199409D0A59F900D66
:103E8000B49F900DA49F800D911D11240895A29FB1
:103E9000B001B39FC001A39F700D811D1124911D1E
:103EA000B29F700D811D1124911D08950F931F93D2
:103EB000CF93DF938230910510F482E090E0E0919F
:103EC0007A06F0917B0620E030E0A0E0B0E0309789
:103ED00019F1408151810281138148175907C8F0B7
:103EE0008417950769F4109731F012960C93129786
:103EF00013961C9327C000937A0610937B0622C06A
:103F00002115310519F04217530718F49A01BD0124
:103F1000EF01DF01F801DBCF21153105F9F0281B96
:103F2000390B2430310580F48A819B81611571053C
:103F300021F0FB019383828304C090937B068093DE
:103F40007A06FE01329644C0FE01E20FF31F819310
:103F5000919322503109398328833AC02091780601
:103F600030917906232B41F42091160230911702EB
:103F7000309379062093780620911402309115022F
:103F80002115310541F42DB73EB7409118025091EB
:103F90001902241B350BE0917806F0917906E2179F
:103FA000F307A0F42E1B3F0B2817390778F0AC015C
:103FB0004E5F5F4F2417350748F04E0F5F1F509339
:103FC0007906409378068193919302C0E0E0F0E097
:103FD000CF01DF91CF911F910F910895CF93DF9380
:103FE000009709F481C0FC01329713821282A091DC
:103FF0007A06B0917B06109781F420813181820F7F
:10400000931F20917806309179062817390751F5CA
:10401000F0937906E093780667C0ED0120E030E088
:10402000CE17DF0740F44A815B819E01411551059F
:10403000F1F0EA01F5CFD383C28340815181840F2F
:10404000951FC817D90759F488819981840F951F46
:104050000296918380838A819B8193838283211539
:10406000310529F4F0937B06E0937A063DC0E9011F
:10407000FB83EA8349915991C40FD51FEC17FD07C3
:1040800061F480819181840F951F0296E9019983E3
:104090008883828193819B838A83E0E0F0E012969B
:1040A0008D919C911397009719F0FD01DC01F7CFDA
:1040B0008D919C9111979D012E5F3F4F820F931F11
:1040C00020917806309179062817390769F43097DE
:1040D00029F410927B0610927A0602C01382128293
:1040E000B0937906A0937806DF91CF91089581E08F
:1040F00090E0F8941CC0FB01DC0104C08D9101909C
:10410000801921F441505040C8F7881B990B08953D
:10411000FB01DC014150504048F001900D9200201D
:10412000C9F701C01D9241505040E0F70895F8943E
:02413000FFCFBF
:104132004F014F014F014F014F014F014F014F01FD
:10414200FFFFFFFF00007C06800000000000E2018C
:1041520050017A012E02AB0189019D01000000008D
:10416200990A5001EA0EE90E000000008702500190
:10417200EA0EE90E00000000D30E080FEA0E010F4E
:10418200B20EF212FB1262B3B96420696E696369FE
:10419200616C697A61636A69206B61727479205318
:1041A20044000D0A006B6172746120534420676FF2
:1041B200746F77610044616E654D6170792E747819
:1041C20074002C006E616E00696E66006F76660088
:020000023000CC
:10E000000D9489F10D94B2F10D94B2F10D94B2F129
:10E010000D94B2F10D94B2F10D94B2F10D94B2F1F0
:10E020000D94B2F10D94B2F10D94B2F10D94B2F1E0
:10E030000D94B2F10D94B2F10D94B2F10D94B2F1D0
:10E040000D94B2F10D94B2F10D94B2F10D94B2F1C0
:10E050000D94B2F10D94B2F10D94B2F10D94B2F1B0
:10E060000D94B2F10D94B2F10D94B2F10D94B2F1A0
:10E070000D94B2F10D94B2F10D94B2F10D94B2F190
:10E080000D94B2F10D94B2F10D94B2F10D94B2F180
:10E090000D94B2F10D94B2F10D94B2F10D94B2F170
:10E0A0000D94B2F10D94B2F10D94B2F10D94B2F160
:10E0B0000D94B2F10D94B2F10D94B2F10D94B2F150
:10E0C0000D94B2F10D94B2F10D94B2F10D94B2F140
:10E0D0000D94B2F10D94B2F10D94B2F10D94B2F130
:10E0E0000D94B2F141546D656761323536300041AF
:10E0F000726475696E6F206578706C6F72657220DE
:10E1000073746B3530305632206279204D4C530099
:10E11000426F6F746C6F616465723E004875683F52
:10E1200000436F6D70696C6564206F6E203D200048
:10E130004350552054797065202020203D20005FF9
:10E140005F4156525F415243485F5F3D2000415658
:10E1500052204C696243205665723D20004743437C
:10E160002056657273696F6E203D20004350552024
:10E1700049442020202020203D20004C6F7720663D
:10E18000757365202020203D20004869676820665F
:10E190007573652020203D200045787420667573D6
:10E1A00065202020203D20004C6F636B2066757336
:10E1B000652020203D20004D617220203720323024
:10E1C000313300312E362E3800342E332E350056A2
:10E1D00023202020414444522020206F7020636F70
:10E1E00064652020202020696E73747275637469E1
:10E1F0006F6E2061646472202020496E74657272B3
:10E20000757074006E6F20766563746F7200726A49
:10E210006D702020006A6D70200057686174207056
:10E220006F72743A00506F7274206E6F7420737541
:10E2300070706F72746564004D7573742062652030
:10E2400061206C6574746572002000577269747483
:10E25000696E672045450052656164696E672045B7
:10E26000450045452065727220636E743D00504F35
:10E27000525400303D5A65726F2061646472003FF1
:10E280003D43505520737461747300403D454550C3
:10E29000524F4D207465737400423D426C696E6B41
:10E2A000204C454400453D44756D70204545505215
:10E2B0004F4D00463D44756D7020464C415348001B
:10E2C000483D48656C70004C3D4C69737420492F83
:10E2D0004F20506F72747300513D51756974005234
:10E2E0003D44756D702052414D00563D73686F7707
:10E2F00020696E7465727275707420566563746FF0
:10E30000727300593D506F727420626C696E6B00BD
:10E310002A0011241FBECFEFD1E2DEBFCDBF01E046
:10E320000CBF12E0A0E0B2E0EEE1FDEF03E00BBFB6
:10E3300002C007900D92A030B107D9F712E0A0E01B
:10E34000B2E001C01D92AE30B107E1F70F9460F367
:10E350000D948DFE01E20EBF0FEF0DBF11241FBE05
:10E360000D9460F30D9400F020E030E040ED57E0B4
:10E3700005C0FA013197F1F72F5F3F4F2817390792
:10E38000C0F308959C01260F311DC901A0E0B0E043
:10E390002F5F3F4FABBFFC018791882361F08093D3
:10E3A000C6008091C00086FFFCCF8091C0008064D1
:10E3B0008093C000EACF08958DE08093C6008091DD
:10E3C000C00086FFFCCF8091C00080648093C000B5
:10E3D0008AE08093C6008091C00086FFFCCF8091C8
:10E3E000C00080648093C00008950F94C2F10F9420
:10E3F000DCF10895FC019081992359F09093C600B7
:10E400008091C00086FFFCCF8091C0008064809323
:10E41000C0003196992379F70895282F982F929567
:10E420009F70892F805D8A3308F0895F8093C600D2
:10E430008091C00086FFFCCF8091C00080648093F3
:10E44000C000822F8F70982F905D9A3308F0995FEB
:10E450009093C6008091C00086FFFCCF8091C000E1
:10E4600080648093C00008959C01FB01853691056E
:10E470001CF46330710594F0C90164E670E00F94F8
:10E480002EFE605D7F4F6093C6008091C00086FFC6
:10E49000FCCF8091C00080648093C0002B30310598
:10E4A00014F43297B4F0C90164E670E00F942EFEC4
:10E4B0006AE070E00F942EFE605D7F4F6093C600AF
:10E4C0008091C00086FFFCCF8091C0008064809363
:10E4D000C000C9016AE070E00F942EFEC0968093E0
:10E4E000C6008091C00086FFFCCF8091C000806490
:10E4F0008093C00008951F93182F8EE692EE60E07F
:10E500000F94C2F11093C6008091C00086FFFCCF2B
:10E510008091C00080648093C0000F94DCF11F9153
:10E5200008952F923F924F925F926F927F928F92B7
:10E530009F92AF92BF92CF92DF92EF92FF920F9392
:10E540001F93DF93CF93CDB7DEB762970FB6F894E2
:10E55000DEBF0FBECDBF382E622ECA01DB015C01CB
:10E560006D01772420E2222E2E010894411C511CBB
:10E570008BC081E0A81680E0B80681E0C80680E084
:10E58000D80628F0C601AA27BB270F940DF2BB2797
:10E59000AD2D9C2D8B2D0F940DF28A2D0F940DF225
:10E5A0002092C6008091C00086FFFCCF8091C00001
:10E5B00080648093C0009DE29093C6008091C0006B
:10E5C00086FFFCCF8091C00080648093C0002092C1
:10E5D000C6008091C00086FFFCCF8091C00080649F
:10E5E0008093C00019828601750188249924A1E0D6
:10E5F0003A1651F03A1620F0B2E03B1661F409C029
:10E600000BBFF701779007C0C7010F9477FE782EF4
:10E6100002C0F7017080872D0F940DF22092C60082
:10E620008091C00086FFFCCF8091C0008064809301
:10E63000C000872D8052F401EF70F0708F3520F408
:10E64000E40DF51D708204C0E40DF51D8EE280839B
:10E650000894E11CF11C011D111D0894811C911CE2
:10E6600090E18916910409F0C2CF80E190E0A0E02A
:10E67000B0E0A80EB91ECA1EDB1E198AC2010F9493
:10E68000FAF10F94DCF16A94662009F072CF629679
:10E690000FB6F894DEBF0FBECDBFCF91DF911F91B3
:10E6A0000F91FF90EF90DF90CF90BF90AF909F9031
:10E6B0008F907F906F905F904F903F902F90089534
:10E6C0002F923F924F925F926F927F928F929F9282
:10E6D000AF92BF92CF92DF92EF92FF920F931F9370
:10E6E000DF93CF93CDB7DEB7CD53D1400FB6F894BB
:10E6F000DEBF0FBECDBF01E20EBF0FEF0DBF94B75F
:10E70000F894A89514BE80916000886180936000A1
:10E7100010926000789493FF05C0E0910002F091A0
:10E7200001021995279A2F9A8091C00082608093E8
:10E73000C00080E18093C40088E18093C1000000A4
:10E74000EE24FF24870144E0A42EB12CCC24DD2448
:10E7500024C0C5010197F1F70894E11CF11C011DCB
:10E76000111D21E2E2162EE4F20620E0020720E06D
:10E77000120718F031E0C32ED12CC801B70127ECE5
:10E780003BE140E050E00F9441FE611571058105C9
:10E79000910519F485B1805885B98091C00087FD35
:10E7A00003C0C114D104A9F2A6014F5F5F4FC25E3E
:10E7B000DE4F59834883CE51D140C25EDE4F8881FF
:10E7C0009981CE51D140019711F00D9410FEC05D9A
:10E7D000DE4F19821882C053D14060E0C15DDE4F28
:10E7E0001882CF52D14088249924C35DDE4F19820C
:10E7F0001882CD52D140C05EDE4F188219821A8233
:10E800001B82C052D140CE5CDE4F188219821A8220
:10E810001B82C253D140EE24FF2487010BBFF701B6
:10E8200007911691C45CDE4F19830883CC53D14005
:10E830000D940BFEC25EDE4F28813981CE51D1404E
:10E840002130310509F52091C600C25EDE4F1982E4
:10E850001882CE51D14022C02F5F3F4F4F4F5F4FA4
:10E86000213082E138078AE7480780E0580780F0C6
:10E87000C45CDE4FE881F981CC53D140EF5FFF4F9C
:10E8800019F0EE27FF27099420E030E040E050E047
:10E890008091C00087FFE0CF2091C600C35DDE4FAE
:10E8A00048815981CD52D1404F5F5F4FC35DDE4FEC
:10E8B00059834883CD52D140213209F063C64A3092
:10E8C000510508F05FC60894811C911C53E0851621
:10E8D000910409F059C600E010E018C081E280936D
:10E8E000C6008091C00086FFFCCF8091C00080648C
:10E8F0008093C0002F5F3F4F2931310579F70F9486
:10E90000DCF10F5F1F4F0530110519F020E030E0FA
:10E91000E5CF10920A0210920B0210920C02109294
:10E920000D02109206021092070210920802109235
:10E930000902109202021092030210920402109235
:10E9400005028FEE90EE60E00F94F5F180E191EE1C
:10E9500060E00F94C2F18091C00087FFFCCF9091DE
:10E96000C600903608F09F759032B8F09093C600BC
:10E970008091C00086FFFCCF8091C00080648093AE
:10E98000C000A0E2A093C6008091C00086FFFCCF2B
:10E990008091C00080648093C000983409F4D7C18E
:10E9A0009934B8F4923409F459C1933458F490333B
:10E9B00019F1903308F4E3C59F33A1F1903409F0C5
:10E9C000DEC5BDC0953409F470C1963409F0D7C5D1
:10E9D00098C1923509F42BC2933538F49C3409F46C
:10E9E000F5C1913509F0CBC518C2963509F445C279
:10E9F000993509F0C4C567C483E792EE62E00F94CD
:10EA0000F5F110920602109207021092080210927D
:10EA1000090210920A0210920B0210920C0210923C
:10EA20000D0213C18FE792EE62E00F94F5F18FEEC5
:10EA300090EE60E00F94F5F181E291EE60E00F94CA
:10EA4000C2F187EB91EE60E00F94F5F180E391EE77
:10EA500060E00F94C2F184EE90EE60E00F94F5F167
:10EA60008FE391EE60E00F94C2F186E090E061E008
:10EA700070E00F9434F20F94DCF18DE591EE60E0DC
:10EA80000F94C2F189EC91EE60E00F94F5F18EE401
:10EA900091EE60E00F94C2F183EC91EE60E00F9490
:10EAA000F5F18CE691EE60E00F94C2F18EE10F94E7
:10EAB0000DF288E90F940DF281E00F940DF20F949E
:10EAC000DCF18BE791EE60E00F94C2F119E0E0E039
:10EAD000F0E010935700E4918E2F0F940DF20F94F5
:10EAE000DCF18AE891EE60E00F94C2F1E3E0F0E03F
:10EAF00010935700E4918E2F0F940DF20F94DCF1D8
:10EB000089E991EE60E00F94C2F1E2E0F0E0109349
:10EB10005700E4918E2F0F940DF20F94DCF188EAE8
:10EB200091EE60E00F94C2F1E1E0F0E01093570045
:10EB30001491812F0F940DF20F94DCF107CF8BE825
:10EB400092EE62E00F94F5F18BE492EE60E00F94A8
:10EB5000F5F10F94DCF100E010E019C0C8016F2D51
:10EB60000F947FFEFF2031F489E492EE60E00F9471
:10EB7000C2F10BC0F092C6008091C00086FFFCCFAE
:10EB80008091C00080648093C0000F5F1F4FC80158
:10EB900081519F41A0E0B0E0ABBFFC01F790BAE229
:10EBA000FB1621F0E2E000301E07C1F60F94DCF105
:10EBB0000F94DCF187E592EE60E00F94F5F10F948D
:10EBC000DCF1CC24DD2400E010E01EC0C8010F946D
:10EBD00077FEF82E882331F489E492EE60E00F94FA
:10EBE000C2F10BC08093C6008091C00086FFFCCFAD
:10EBF0008091C00080648093C000FE1419F00894D6
:10EC0000C11CD11C0F5F1F4FC80181519F41A0E063
:10EC1000B0E0ABBFFC01E790FAE2EF1621F022E092
:10EC20000030120799F60F94DCF10F94DCF182E6C4
:10EC300092EE60E00F94C2F1C60161E070E00F94C3
:10EC400034F20F94DCF10F94DCF110920202109276
:10EC50000302109204021092050278CE89E992EE26
:10EC600062E00F94F5F1279A2F9A16C02F9880E052
:10EC700090E0E0EDF7E03197F1F7019684369105E9
:10EC8000C1F72F9A80E090E0E0EDF7E03197F1F7DF
:10EC9000019684369105C1F78091C00087FFE6CFC9
:10ECA0008091C00087FFFCCF64C485EA92EE62E0E9
:10ECB0000F94F5F140910202509103026091040219
:10ECC0007091050281E020E10F9491F2809102029F
:10ECD00090910302A0910402B091050280509F4FD1
:10ECE000AF4FBF4F8093020290930302A0930402A0
:10ECF000B093050280509041A040B04008F426CE69
:10ED0000A4CF83EB92EE62E00F94F5F140910602FE
:10ED100050910702609108027091090280E020E1A1
:10ED20000F9491F28091060290910702A09108023F
:10ED3000B091090280509F4FAF4FBF4F80930602A2
:10ED400090930702A0930802B0930902FFCD80ECD4
:10ED500092EE62E00F94F5F183E792EE60E00F949B
:10ED6000F5F18FE792EE60E00F94F5F18BE892EE0B
:10ED700060E00F94F5F189E992EE60E00F94F5F10F
:10ED800085EA92EE60E00F94F5F183EB92EE60E09D
:10ED90000F94F5F180EC92EE60E00F94F5F187ECC2
:10EDA00092EE60E00F94F5F188ED92EE60E00F9442
:10EDB000F5F18FED92EE60E00F94F5F18AEE92EEB0
:10EDC00060E00F94F5F183E093EEBDCD87EC92EE19
:10EDD00062E00F94F5F181E40F947BF282E40F94EA
:10EDE0007BF283E40F947BF284E40F947BF285E45E
:10EDF0000F947BF286E40F947BF287E40F947BF20E
:10EE000088E40F947BF28AE40F947BF28BE40F94F6
:10EE10007BF28CE40F947BF299CD88ED92EE62E068
:10EE20000F94F5F1772473948824992409C48FED05
:10EE300092EE62E00F94F5F140910A0250910B02BC
:10EE400060910C0270910D0282E020E10F9491F22A
:10EE500080910A0290910B02A0910C02B0910D02D8
:10EE600080509F4FAF4FBF4F80930A0290930B0289
:10EE7000A0930C02B0930D0269CD8AEE92EE62E08F
:10EE80000F94F5F184EE90EE60E00F94F5F18FECC5
:10EE900091EE60E00F94F5F1662477244301CC5D98
:10EEA000DE4F19821882C452D140D401C301B695F5
:10EEB000A79597958795CA5DDE4F88839983AA8326
:10EEC000BB83C652D140CC5DDE4FA881B981C4520C
:10EED000D1401196CC5DDE4FB983A883C452D14096
:10EEE000CD0162E070E00F9434F2B0E2B093C6005E
:10EEF0008091C00086FFFCCF8091C0008064809329
:10EF0000C000EDE2E093C6008091C00086FFFCCF18
:10EF10008091C00080648093C000F0E2F093C6004E
:10EF20008091C00086FFFCCF8091C00080648093F8
:10EF3000C000CA5DDE4FE880F9800A811B81C6529D
:10EF4000D140BB27A12F902F8F2D0F940DF2CA5DBA
:10EF5000DE4F8881C652D1400F940DF2B0E2FB2EF5
:10EF6000F092C6008091C00086FFFCCF8091C00067
:10EF700080648093C0000DE30093C6008091C000C0
:10EF800086FFFCCF8091C00080648093C00010E2B7
:10EF90001093C6008091C00086FFFCCF8091C00016
:10EFA00080648093C0008BBEF3012791C65DDE4F65
:10EFB0002883CA52D140A22EBB24CC24DD2408943D
:10EFC000611C711C811C911C8BBEF3018791282E42
:10EFD0003324442455240894611C711C811C911C09
:10EFE0008BBEF3013791C55DDE4F3883CB52D140E4
:10EFF0000894611C711C811C911C8BBEF30147910C
:10F00000C45DDE4F4883CC52D140ADEFEA2EAFEF66
:10F01000FA2EAFEF0A2FAFEF1A2F6E0C7F1C801E57
:10F02000911E142D032DF22CEE24EA0CFB1C0C1D5A
:10F030001D1D0F940DF220E22093C6008091C000A8
:10F0400086FFFCCF8091C00080648093C000C65DC5
:10F05000DE4F8881CA52D1400F940DF230E23093D6
:10F06000C6008091C00086FFFCCF8091C000806404
:10F070008093C000C45DDE4F8881CC52D1400F9494
:10F080000DF240E24093C6008091C00086FFFCCFA5
:10F090008091C00080648093C000C55DDE4F888190
:10F0A000CB52D1400F940DF250E25093C6008091A4
:10F0B000C00086FFFCCF8091C00080648093C000B8
:10F0C0008FEFE8168FEFF80680E0080780E018075A
:10F0D00031F484E092EE60E00F94C2F1DFC0D80119
:10F0E000C7018070907CA070B0708050904CA040A0
:10F0F000B040D1F52FEF3FE340E050E0E222F322B1
:10F1000004231523CA5DDE4FA880B980CA80DB8046
:10F11000C652D140AE0CBF1CC01ED11EAA0CBB1CD7
:10F12000CC1CDD1C8EE092EE60E00F94C2F1BB2798
:10F13000A12F902F8F2D0F940DF28E2D0F940DF285
:10F1400030E23093C6008091C00086FFFCCF8091F2
:10F15000C00080648093C0004EE34093C60080915D
:10F16000C00086FFFCCF87C08EE09EEFA0E0B0E03D
:10F17000E822F9220A231B239CE0E91694E9F90608
:10F1800090E0090790E0190709F088C0C45DDE4FE0
:10F19000A881CC52D140EA2EFF2400E010E0102FCD
:10F1A0000F2DFE2CEE24C55DDE4FB881CB52D14031
:10F1B000EB0EF11C011D111DD601C501817090706F
:10F1C000A070B070DC0199278827E80EF91E0A1F8D
:10F1D0001B1F20EF30E040E050E0A222B322C42207
:10F1E000D52241E1AA0CBB1CCC1CDD1C4A95D1F7F1
:10F1F000EA0CFB1C0C1D1D1D81E090E0A0E0B0E0BE
:10F20000282239224A225B2235E1220C331C441C7D
:10F21000551C3A95D1F7E20CF31C041D151D57013E
:10F220006801AA0CBB1CCC1CDD1C85E192EE60E0E1
:10F230000F94C2F1C801AA27BB270F940DF2BB2778
:10F24000A12F902F8F2D0F940DF28E2D0F940DF274
:10F2500090E29093C6008091C00086FFFCCF809121
:10F26000C00080648093C000AEE3A093C60080918C
:10F27000C00086FFFCCF8091C00080648093C000F6
:10F28000C601AA27BB270F940DF2BB27AD2D9C2DDD
:10F290008B2D0F940DF28A2D0F940DF20F94DCF14B
:10F2A000CC5DDE4FE881F981C452D140F99709F471
:10F2B0004DCBF4E0EF2EF12C012D112D6E0C7F1CA7
:10F2C000801E911EF2CD83E093EE62E00F94F5F183
:10F2D0008AE192EE60E00F94C2F18091C00087FF56
:10F2E000FCCF1091C6001F751093C6008091C0001E
:10F2F00086FFFCCF8091C00080648093C0000F9493
:10F30000DCF1812F81548A3108F036C1163409F4BA
:10F3100095C0173490F4133409F44EC0143430F40B
:10F320001134F1F0123409F01DC130C0143409F465
:10F3300059C0153409F016C16BC01A3409F4C4C0A1
:10F340001B3438F4173409F48FC0183409F00AC19B
:10F35000A1C01B3409F4D2C01C3409F003C1E8C0B9
:10F360008FEF81B90DC082B1809582B980E090E0C5
:10F37000E0EDF7E03197F1F70196883C9105C1F790
:10F380008091C00087FFEFCF12B8EFC08FEF84B934
:10F390000DC085B1809585B980E090E0E0EDF7E0A3
:10F3A0003197F1F70196883C9105C1F78091C00033
:10F3B00087FFEFCF15B8D9C08FEF87B90DC088B1DF
:10F3C000809588B980E090E0E0EDF7E03197F1F7C3
:10F3D0000196883C9105C1F78091C00087FFEFCF6F
:10F3E00018B8C3C08FEF8AB90DC08BB180958BB9A7
:10F3F00080E090E0E0EDF7E03197F1F70196883C8E
:10F400009105C1F78091C00087FFEFCF1BB8ADC059
:10F410008FEF8DB90DC08EB180958EB980E090E0F0
:10F42000E0EDF7E03197F1F70196883C9105C1F7DF
:10F430008091C00087FFEFCF1EB897C08FEF80BBD1
:10F440000DC081B3809581BB80E090E0E0EDF7E0F6
:10F450003197F1F70196883C9105C1F78091C00082
:10F4600087FFEFCF11BA81C08FEF83BB0DC084B38C
:10F47000809584BB80E090E0E0EDF7E03197F1F714
:10F480000196883C9105C1F78091C00087FFEFCFBE
:10F4900014BA6BC08FEF809301010FC080910201FD
:10F4A00080958093020180E090E0E0EDF7E03197F5
:10F4B000F1F70196883C9105C1F78091C00087FF64
:10F4C000EDCF1092020151C08FEF809304010FC065
:10F4D0008091050180958093050180E090E0E0ED4A
:10F4E000F7E03197F1F70196883C9105C1F78091DB
:10F4F000C00087FFEDCF1092050137C08FEF8093DA
:10F5000007010FC08091080180958093080180E079
:10F5100090E0E0EDF7E03197F1F70196883C910536
:10F52000C1F78091C00087FFEDCF109208011DC088
:10F530008FEF80930A010FC080910B01809580931B
:10F540000B0180E090E0E0EDF7E03197F1F70196F4
:10F55000883C9105C1F78091C00087FFEDCF1092E4
:10F560000B0103C085E292EEEEC98091C00087FFD7
:10F57000FCCF8091C600EAC988E392EEE4C98CE131
:10F5800091EEE1C988249924933011F1943028F444
:10F59000913089F09230B8F408C0953061F195301F
:10F5A000F0F0963009F048C043C02B3109F042C951
:10F5B00091E06BE13FC96227C15DDE4F2883CF52E6
:10F5C000D14092E037C9B22FA0E0622793E032C960
:10F5D000822F90E0A82BB92B622794E02BC92E3004
:10F5E00009F039C3622795E0C05DDE4F19821882A9
:10F5F000C053D1401FC9E1E0F0E0EC0FFD1FC05D3A
:10F60000DE4F08811981C053D140E00FF11F2083E4
:10F610000F5F1F4FC05DDE4F19830883C053D14079
:10F6200062270A171B0709F005C9D80196E002C92D
:10F63000261709F010C303C0973009F0FBC87724E0
:10F640009981933109F412C19431C8F4963009F4C8
:10F65000D8C0973050F4923009F406C1933009F4C1
:10F660006DC0913009F059C253C0913109F477C08F
:10F67000923108F0BBC0903109F04FC2F5C098310B
:10F6800009F487C0993150F4953109F4EFC09531F0
:10F6900008F4C6C1963109F040C2C2C19A3109F4DA
:10F6A0006CC09A3108F491C09B3109F45BC09D3164
:10F6B00009F033C29D81903359F48F81882311F46E
:10F6C0009EE11CC0813011F091E018C098E916C08D
:10F6D000892F807591F0903539F4E0E0F0E089E011
:10F6E0008093570094910AC0983539F4E3E0F0E034
:10F6F00089E080935700949101C090E01A821B82A8
:10F700008D818C831D829E831F8227E030E009C299
:10F710001A8288E08B8381E48C8386E58D8382E581
:10F720008E8389E48F8383E5888780E589878FE5E9
:10F730008A8782E38B872BE030E0F3C18A818139AD
:10F7400041F0823941F0803911F48FE005C080E04A
:10F7500003C082E001C08AE01A828B8344C0772410
:10F76000739482C08D81882311F48EE12CC0813086
:10F7700011F081E028C088E926C01A82E1E0F0E0BB
:10F7800089E08093570084918B831C8224E030E0D1
:10F79000C8C18B81803589F48C81883039F4E2E0EE
:10F7A000F0E089E08093570084910DC0E0E0F0E044
:10F7B00089E080935700849106C0E3E0F0E089E09F
:10F7C0008093570084911A82DFCF8D81836C99E0FA
:10F7D000E1E0F0E0082E90935700E89507B600FCB2
:10F7E000FDCF1A821B8223E030E09BC180EC8A832C
:10F7F000CE5CDE4F188219821A821B82C253D1401E
:10F800008EC18A8190E0A0E0B0E0582F44273327D2
:10F8100022278B8190E0A0E0B0E0DC0199278827C7
:10F82000282B392B4A2B5B2B8D8190E0A0E0B0E098
:10F83000282B392B4A2B5B2B8C8190E0A0E0B0E089
:10F84000BA2FA92F982F8827282B392B4A2B5B2BCF
:10F85000220F331F441F551FC05EDE4F288339839C
:10F860004A835B83C052D1401A8259C13A81C95C34
:10F87000DE4F3883C753D140CA5CDE4F1882C6536F
:10F88000D1408B81C82EDD24CA5CDE4F488159816E
:10F89000C653D140C42AD52A933109F082C0CE5C28
:10F8A000DE4F88819981AA81BB81C253D1408050AB
:10F8B000904CA340B04030F583E0CE5CDE4FE88052
:10F8C000F9800A811B81C253D140F70100935B008C
:10F8D00080935700E89507B600FCFDCFCE5CDE4F65
:10F8E000088119812A813B81C253D14000501F4FAA
:10F8F0002F4F3F4FCE5CDE4F088319832A833B8313
